{
  "_format": "hh-sol-artifact-1",
  "contractName": "TwoFactorAuth",
  "sourceName": "contracts/Authentication.sol",
  "abi": [
    {
      "anonymous": false,
      "inputs": [
        {
          "indexed": true,
          "internalType": "address",
          "name": "user",
          "type": "address"
        },
        {
          "indexed": false,
          "internalType": "uint256",
          "name": "otp",
          "type": "uint256"
        }
      ],
      "name": "OtpGenerated",
      "type": "event"
    },
    {
      "anonymous": false,
      "inputs": [
        {
          "indexed": true,
          "internalType": "address",
          "name": "user",
          "type": "address"
        },
        {
          "indexed": false,
          "internalType": "bool",
          "name": "success",
          "type": "bool"
        }
      ],
      "name": "UserAuthenticated",
      "type": "event"
    },
    {
      "anonymous": false,
      "inputs": [
        {
          "indexed": true,
          "internalType": "address",
          "name": "user",
          "type": "address"
        },
        {
          "indexed": false,
          "internalType": "string",
          "name": "username",
          "type": "string"
        }
      ],
      "name": "UserRegistered",
      "type": "event"
    },
    {
      "inputs": [
        {
          "internalType": "bytes",
          "name": "_publicKey",
          "type": "bytes"
        },
        {
          "internalType": "uint256",
          "name": "_otp",
          "type": "uint256"
        }
      ],
      "name": "authenticateUser",
      "outputs": [
        {
          "internalType": "bool",
          "name": "",
          "type": "bool"
        }
      ],
      "stateMutability": "nonpayable",
      "type": "function"
    },
    {
      "inputs": [],
      "name": "generateOTP",
      "outputs": [
        {
          "internalType": "uint256",
          "name": "",
          "type": "uint256"
        }
      ],
      "stateMutability": "view",
      "type": "function"
    },
    {
      "inputs": [
        {
          "internalType": "address",
          "name": "userAddress",
          "type": "address"
        }
      ],
      "name": "getUserDetails",
      "outputs": [
        {
          "internalType": "string",
          "name": "",
          "type": "string"
        },
        {
          "internalType": "bytes",
          "name": "",
          "type": "bytes"
        },
        {
          "internalType": "bytes32",
          "name": "",
          "type": "bytes32"
        }
      ],
      "stateMutability": "view",
      "type": "function"
    },
    {
      "inputs": [
        {
          "internalType": "bytes",
          "name": "_publicKey",
          "type": "bytes"
        },
        {
          "internalType": "uint256",
          "name": "_otp",
          "type": "uint256"
        }
      ],
      "name": "isOTPValid",
      "outputs": [
        {
          "internalType": "bool",
          "name": "",
          "type": "bool"
        }
      ],
      "stateMutability": "view",
      "type": "function"
    },
    {
      "inputs": [
        {
          "internalType": "string",
          "name": "_username",
          "type": "string"
        },
        {
          "internalType": "bytes",
          "name": "_publicKey",
          "type": "bytes"
        },
        {
          "internalType": "bytes32",
          "name": "_otpSeed",
          "type": "bytes32"
        }
      ],
      "name": "registerUser",
      "outputs": [],
      "stateMutability": "nonpayable",
      "type": "function"
    }
  ],
  "bytecode": "0x6080806040523461001657610a6d908161001c8239f35b600080fdfe6040608081526004908136101561001557600080fd5b600091823560e01c90816308e465d0146106005781637493a2761461027b578163cc3d967b146101e3578163d0207c5514610081575063d8a2c37a1461005a57600080fd5b3461007d5760209061007461006e366106d9565b9161090d565b90519015158152f35b5080fd5b919050346101df57610092366106d9565b939194903382526100e76100d36100e1602098858a52878620946100da600187016100c860416100c2835461070c565b14610835565b8a5195868092610877565b0385610778565b369161079a565b906109ba565b156101a6576002601e42049101549084519287840193838552828782015286815261011181610746565b620f4240948591519020069460001983019283116101935750508451908782019283528582015284815261014481610746565b51902006908314928315610189575b50508051911515918281527f297fcf4a80c00fc75b80bbe3ce4f2c31caaaeee3f0b636677d53ed059538e1dd843392a251908152f35b1491503880610153565b634e487b7160e01b825260119052602490fd5b835162461bcd60e51b815280840187905260136024820152720a0eac4d8d2c640d6caf240dad2e6dac2e8c6d606b1b6044820152606490fd5b8280fd5b9050346101df5760203660031901126101df57356001600160a01b038116908190036101df5782829161026594528060205220906002820154610273600161025284519561023c876102358184610877565b0388610778565b61024b86518094819301610877565b0382610778565b8351958695606087526060870190610699565b908582036020870152610699565b918301520390f35b8391503461007d57606036600319011261007d5767ffffffffffffffff9080358281116105fc576102af9036908301610666565b92909460249586358381116105f8576102cb9036908601610666565b90943388526020948886526001966102e788878c20015461070c565b6105b657604184036105745785519360808501858110848211176105625787526103209190610317368c8961079a565b8652369161079a565b9086840191825285840197604435895260608501938b8552338c528b8952878c2095518c815191858311610550579082916103658361035f8c5461070c565b8c6107e1565b8c91601f84116001146104ef57926104e4575b5050600019600383901b1c191690831b1786555b81860193519081519384116104d257509082916103b885946103b28e9a9998975461070c565b866107e1565b89908d601f851160011461044757936003969593819382937f48cac28ad4dc618e15f4c2dd5e97751182f166de97b25618318b2112aa951a2f9f979461043c575b50501b9160001990871b1c19161790555b51600284015551910155818351948086528501528284013784818584010152813394601f80199101168101030190a280f35b0151925038806103f9565b8581528b81209c9594929190601f198416905b8181106104ba5750917f48cac28ad4dc618e15f4c2dd5e97751182f166de97b25618318b2112aa951a2f9d91846003999897969594106104a2575b505050811b01905561040a565b015160001983891b60f8161c191690558e8080610495565b828401518f559d85019d8f9b50928d01928d0161045a565b634e487b7160e01b8d52604190528c8cfd5b015190508f80610378565b8a81528d8120879550929190601f198516908f5b8282106105395750508411610520575b505050811b01865561038c565b015160001960f88460031b161c191690558f8080610513565b83850151865589979095019493840193018f610503565b634e487b7160e01b8252604184528f82fd5b634e487b7160e01b8c52604185528c8cfd5b855162461bcd60e51b8152808401889052601b818d01527f5075626c6963206b6579206d75737420626520363520627974657300000000006044820152606490fd5b855162461bcd60e51b81528084018890526017818d01527f5573657220616c726561647920726567697374657265640000000000000000006044820152606490fd5b8680fd5b8380fd5b50503461007d578160031936011261007d57620f424060028260209433815280865261063660416100c26001858520015461070c565b3381528086522001548251848101918252601e42048482015283815261065b81610746565b519020069051908152f35b9181601f840112156106945782359167ffffffffffffffff8311610694576020838186019501011161069457565b600080fd5b919082519283825260005b8481106106c5575050826000602080949584010152601f8019910116010190565b6020818301810151848301820152016106a4565b6040600319820112610694576004359067ffffffffffffffff82116106945761070491600401610666565b909160243590565b90600182811c9216801561073c575b602083101461072657565b634e487b7160e01b600052602260045260246000fd5b91607f169161071b565b6060810190811067ffffffffffffffff82111761076257604052565b634e487b7160e01b600052604160045260246000fd5b90601f8019910116810190811067ffffffffffffffff82111761076257604052565b92919267ffffffffffffffff821161076257604051916107c4601f8201601f191660200184610778565b829481845281830111610694578281602093846000960137010152565b90601f81116107ef57505050565b600091825260208220906020601f850160051c8301941061082b575b601f0160051c01915b82811061082057505050565b818155600101610814565b909250829061080b565b1561083c57565b60405162461bcd60e51b8152602060048201526013602482015272155cd95c881b9bdd081c9959da5cdd195c9959606a1b6044820152606490fd5b90600092918054916108888361070c565b9182825260019384811690816000146108ea57506001146108aa575b50505050565b90919394506000526020928360002092846000945b8386106108d65750505050010190388080806108a4565b8054858701830152940193859082016108bf565b9294505050602093945060ff191683830152151560051b010190388080806108a4565b33600052600060205260406000209160018301604161092c825461070c565b036109895761094c926100d3926100da6100e19360405195868092610877565b15610982576002620f424091015460405160208101918252601e420460408201526040815261097a81610746565b519020061490565b5050600090565b5050505050600090565b9081518110156109a4570160200190565b634e487b7160e01b600052603260045260246000fd5b91908251815103610a305760005b8351811015610a28576001600160f81b0319806109e58387610993565b5116906109f28385610993565b511603610a20576000198114610a0a576001016109c8565b634e487b7160e01b600052601160045260246000fd5b506000925050565b506001925050565b506000915056fea2646970667358221220f3988d54ff1293a80ebfc1fe663360e6fddc5f66da1c0c62bc47d40b4d671f0e64736f6c63430008140033",
  "linkReferences": {},
  "deployedLinkReferences": {}
}