{"contracts/Authentication.sol":{"TwoFactorAuth":{"abi":[{"anonymous":false,"inputs":[{"indexed":true,"internalType":"address","name":"user","type":"address"},{"indexed":false,"internalType":"uint256","name":"otp","type":"uint256"}],"name":"OtpGenerated","type":"event"},{"anonymous":false,"inputs":[{"indexed":true,"internalType":"address","name":"user","type":"address"},{"indexed":false,"internalType":"bool","name":"success","type":"bool"}],"name":"UserAuthenticated","type":"event"},{"anonymous":false,"inputs":[{"indexed":true,"internalType":"address","name":"user","type":"address"},{"indexed":false,"internalType":"string","name":"username","type":"string"}],"name":"UserRegistered","type":"event"},{"inputs":[{"internalType":"bytes","name":"_publicKey","type":"bytes"},{"internalType":"uint256","name":"_otp","type":"uint256"}],"name":"authenticateUser","outputs":[{"internalType":"bool","name":"","type":"bool"}],"stateMutability":"nonpayable","type":"function"},{"inputs":[],"name":"generateOTP","outputs":[{"internalType":"uint256","name":"","type":"uint256"}],"stateMutability":"view","type":"function"},{"inputs":[{"internalType":"address","name":"userAddress","type":"address"}],"name":"getUserDetails","outputs":[{"internalType":"string","name":"","type":"string"},{"internalType":"bytes","name":"","type":"bytes"},{"internalType":"bytes32","name":"","type":"bytes32"}],"stateMutability":"view","type":"function"},{"inputs":[{"internalType":"bytes","name":"_publicKey","type":"bytes"},{"internalType":"uint256","name":"_otp","type":"uint256"}],"name":"isOTPValid","outputs":[{"internalType":"bool","name":"","type":"bool"}],"stateMutability":"view","type":"function"},{"inputs":[{"internalType":"string","name":"_username","type":"string"},{"internalType":"bytes","name":"_publicKey","type":"bytes"},{"internalType":"bytes32","name":"_otpSeed","type":"bytes32"}],"name":"registerUser","outputs":[],"stateMutability":"nonpayable","type":"function"}],"evm":{"bytecode":{"linkReferences":{},"object":"6080806040523461001657610a6d908161001c8239f35b600080fdfe6040608081526004908136101561001557600080fd5b600091823560e01c90816308e465d0146106005781637493a2761461027b578163cc3d967b146101e3578163d0207c5514610081575063d8a2c37a1461005a57600080fd5b3461007d5760209061007461006e366106d9565b9161090d565b90519015158152f35b5080fd5b919050346101df57610092366106d9565b939194903382526100e76100d36100e1602098858a52878620946100da600187016100c860416100c2835461070c565b14610835565b8a5195868092610877565b0385610778565b369161079a565b906109ba565b156101a6576002601e42049101549084519287840193838552828782015286815261011181610746565b620f4240948591519020069460001983019283116101935750508451908782019283528582015284815261014481610746565b51902006908314928315610189575b50508051911515918281527f297fcf4a80c00fc75b80bbe3ce4f2c31caaaeee3f0b636677d53ed059538e1dd843392a251908152f35b1491503880610153565b634e487b7160e01b825260119052602490fd5b835162461bcd60e51b815280840187905260136024820152720a0eac4d8d2c640d6caf240dad2e6dac2e8c6d606b1b6044820152606490fd5b8280fd5b9050346101df5760203660031901126101df57356001600160a01b038116908190036101df5782829161026594528060205220906002820154610273600161025284519561023c876102358184610877565b0388610778565b61024b86518094819301610877565b0382610778565b8351958695606087526060870190610699565b908582036020870152610699565b918301520390f35b8391503461007d57606036600319011261007d5767ffffffffffffffff9080358281116105fc576102af9036908301610666565b92909460249586358381116105f8576102cb9036908601610666565b90943388526020948886526001966102e788878c20015461070c565b6105b657604184036105745785519360808501858110848211176105625787526103209190610317368c8961079a565b8652369161079a565b9086840191825285840197604435895260608501938b8552338c528b8952878c2095518c815191858311610550579082916103658361035f8c5461070c565b8c6107e1565b8c91601f84116001146104ef57926104e4575b5050600019600383901b1c191690831b1786555b81860193519081519384116104d257509082916103b885946103b28e9a9998975461070c565b866107e1565b89908d601f851160011461044757936003969593819382937f48cac28ad4dc618e15f4c2dd5e97751182f166de97b25618318b2112aa951a2f9f979461043c575b50501b9160001990871b1c19161790555b51600284015551910155818351948086528501528284013784818584010152813394601f80199101168101030190a280f35b0151925038806103f9565b8581528b81209c9594929190601f198416905b8181106104ba5750917f48cac28ad4dc618e15f4c2dd5e97751182f166de97b25618318b2112aa951a2f9d91846003999897969594106104a2575b505050811b01905561040a565b015160001983891b60f8161c191690558e8080610495565b828401518f559d85019d8f9b50928d01928d0161045a565b634e487b7160e01b8d52604190528c8cfd5b015190508f80610378565b8a81528d8120879550929190601f198516908f5b8282106105395750508411610520575b505050811b01865561038c565b015160001960f88460031b161c191690558f8080610513565b83850151865589979095019493840193018f610503565b634e487b7160e01b8252604184528f82fd5b634e487b7160e01b8c52604185528c8cfd5b855162461bcd60e51b8152808401889052601b818d01527f5075626c6963206b6579206d75737420626520363520627974657300000000006044820152606490fd5b855162461bcd60e51b81528084018890526017818d01527f5573657220616c726561647920726567697374657265640000000000000000006044820152606490fd5b8680fd5b8380fd5b50503461007d578160031936011261007d57620f424060028260209433815280865261063660416100c26001858520015461070c565b3381528086522001548251848101918252601e42048482015283815261065b81610746565b519020069051908152f35b9181601f840112156106945782359167ffffffffffffffff8311610694576020838186019501011161069457565b600080fd5b919082519283825260005b8481106106c5575050826000602080949584010152601f8019910116010190565b6020818301810151848301820152016106a4565b6040600319820112610694576004359067ffffffffffffffff82116106945761070491600401610666565b909160243590565b90600182811c9216801561073c575b602083101461072657565b634e487b7160e01b600052602260045260246000fd5b91607f169161071b565b6060810190811067ffffffffffffffff82111761076257604052565b634e487b7160e01b600052604160045260246000fd5b90601f8019910116810190811067ffffffffffffffff82111761076257604052565b92919267ffffffffffffffff821161076257604051916107c4601f8201601f191660200184610778565b829481845281830111610694578281602093846000960137010152565b90601f81116107ef57505050565b600091825260208220906020601f850160051c8301941061082b575b601f0160051c01915b82811061082057505050565b818155600101610814565b909250829061080b565b1561083c57565b60405162461bcd60e51b8152602060048201526013602482015272155cd95c881b9bdd081c9959da5cdd195c9959606a1b6044820152606490fd5b90600092918054916108888361070c565b9182825260019384811690816000146108ea57506001146108aa575b50505050565b90919394506000526020928360002092846000945b8386106108d65750505050010190388080806108a4565b8054858701830152940193859082016108bf565b9294505050602093945060ff191683830152151560051b010190388080806108a4565b33600052600060205260406000209160018301604161092c825461070c565b036109895761094c926100d3926100da6100e19360405195868092610877565b15610982576002620f424091015460405160208101918252601e420460408201526040815261097a81610746565b519020061490565b5050600090565b5050505050600090565b9081518110156109a4570160200190565b634e487b7160e01b600052603260045260246000fd5b91908251815103610a305760005b8351811015610a28576001600160f81b0319806109e58387610993565b5116906109f28385610993565b511603610a20576000198114610a0a576001016109c8565b634e487b7160e01b600052601160045260246000fd5b506000925050565b506001925050565b506000915056fea2646970667358221220f3988d54ff1293a80ebfc1fe663360e6fddc5f66da1c0c62bc47d40b4d671f0e64736f6c63430008140033","opcodes":"PUSH1 0x80 DUP1 PUSH1 0x40 MSTORE CALLVALUE PUSH2 0x16 JUMPI PUSH2 0xA6D SWAP1 DUP2 PUSH2 0x1C DUP3 CODECOPY RETURN JUMPDEST PUSH1 0x0 DUP1 REVERT INVALID PUSH1 0x40 PUSH1 0x80 DUP2 MSTORE PUSH1 0x4 SWAP1 DUP2 CALLDATASIZE LT ISZERO PUSH2 0x15 JUMPI PUSH1 0x0 DUP1 REVERT JUMPDEST PUSH1 0x0 SWAP2 DUP3 CALLDATALOAD PUSH1 0xE0 SHR SWAP1 DUP2 PUSH4 0x8E465D0 EQ PUSH2 0x600 JUMPI DUP2 PUSH4 0x7493A276 EQ PUSH2 0x27B JUMPI DUP2 PUSH4 0xCC3D967B EQ PUSH2 0x1E3 JUMPI DUP2 PUSH4 0xD0207C55 EQ PUSH2 0x81 JUMPI POP PUSH4 0xD8A2C37A EQ PUSH2 0x5A JUMPI PUSH1 0x0 DUP1 REVERT JUMPDEST CALLVALUE PUSH2 0x7D JUMPI PUSH1 0x20 SWAP1 PUSH2 0x74 PUSH2 0x6E CALLDATASIZE PUSH2 0x6D9 JUMP JUMPDEST SWAP2 PUSH2 0x90D JUMP JUMPDEST SWAP1 MLOAD SWAP1 ISZERO ISZERO DUP2 MSTORE RETURN JUMPDEST POP DUP1 REVERT JUMPDEST SWAP2 SWAP1 POP CALLVALUE PUSH2 0x1DF JUMPI PUSH2 0x92 CALLDATASIZE PUSH2 0x6D9 JUMP JUMPDEST SWAP4 SWAP2 SWAP5 SWAP1 CALLER DUP3 MSTORE PUSH2 0xE7 PUSH2 0xD3 PUSH2 0xE1 PUSH1 0x20 SWAP9 DUP6 DUP11 MSTORE DUP8 DUP7 KECCAK256 SWAP5 PUSH2 0xDA PUSH1 0x1 DUP8 ADD PUSH2 0xC8 PUSH1 0x41 PUSH2 0xC2 DUP4 SLOAD PUSH2 0x70C JUMP JUMPDEST EQ PUSH2 0x835 JUMP JUMPDEST DUP11 MLOAD SWAP6 DUP7 DUP1 SWAP3 PUSH2 0x877 JUMP JUMPDEST SUB DUP6 PUSH2 0x778 JUMP JUMPDEST CALLDATASIZE SWAP2 PUSH2 0x79A JUMP JUMPDEST SWAP1 PUSH2 0x9BA JUMP JUMPDEST ISZERO PUSH2 0x1A6 JUMPI PUSH1 0x2 PUSH1 0x1E TIMESTAMP DIV SWAP2 ADD SLOAD SWAP1 DUP5 MLOAD SWAP3 DUP8 DUP5 ADD SWAP4 DUP4 DUP6 MSTORE DUP3 DUP8 DUP3 ADD MSTORE DUP7 DUP2 MSTORE PUSH2 0x111 DUP2 PUSH2 0x746 JUMP JUMPDEST PUSH3 0xF4240 SWAP5 DUP6 SWAP2 MLOAD SWAP1 KECCAK256 MOD SWAP5 PUSH1 0x0 NOT DUP4 ADD SWAP3 DUP4 GT PUSH2 0x193 JUMPI POP POP DUP5 MLOAD SWAP1 DUP8 DUP3 ADD SWAP3 DUP4 MSTORE DUP6 DUP3 ADD MSTORE DUP5 DUP2 MSTORE PUSH2 0x144 DUP2 PUSH2 0x746 JUMP JUMPDEST MLOAD SWAP1 KECCAK256 MOD SWAP1 DUP4 EQ SWAP3 DUP4 ISZERO PUSH2 0x189 JUMPI JUMPDEST POP POP DUP1 MLOAD SWAP2 ISZERO ISZERO SWAP2 DUP3 DUP2 MSTORE PUSH32 0x297FCF4A80C00FC75B80BBE3CE4F2C31CAAAEEE3F0B636677D53ED059538E1DD DUP5 CALLER SWAP3 LOG2 MLOAD SWAP1 DUP2 MSTORE RETURN JUMPDEST EQ SWAP2 POP CODESIZE DUP1 PUSH2 0x153 JUMP JUMPDEST PUSH4 0x4E487B71 PUSH1 0xE0 SHL DUP3 MSTORE PUSH1 0x11 SWAP1 MSTORE PUSH1 0x24 SWAP1 REVERT JUMPDEST DUP4 MLOAD PUSH3 0x461BCD PUSH1 0xE5 SHL DUP2 MSTORE DUP1 DUP5 ADD DUP8 SWAP1 MSTORE PUSH1 0x13 PUSH1 0x24 DUP3 ADD MSTORE PUSH19 0xA0EAC4D8D2C640D6CAF240DAD2E6DAC2E8C6D PUSH1 0x6B SHL PUSH1 0x44 DUP3 ADD MSTORE PUSH1 0x64 SWAP1 REVERT JUMPDEST DUP3 DUP1 REVERT JUMPDEST SWAP1 POP CALLVALUE PUSH2 0x1DF JUMPI PUSH1 0x20 CALLDATASIZE PUSH1 0x3 NOT ADD SLT PUSH2 0x1DF JUMPI CALLDATALOAD PUSH1 0x1 PUSH1 0x1 PUSH1 0xA0 SHL SUB DUP2 AND SWAP1 DUP2 SWAP1 SUB PUSH2 0x1DF JUMPI DUP3 DUP3 SWAP2 PUSH2 0x265 SWAP5 MSTORE DUP1 PUSH1 0x20 MSTORE KECCAK256 SWAP1 PUSH1 0x2 DUP3 ADD SLOAD PUSH2 0x273 PUSH1 0x1 PUSH2 0x252 DUP5 MLOAD SWAP6 PUSH2 0x23C DUP8 PUSH2 0x235 DUP2 DUP5 PUSH2 0x877 JUMP JUMPDEST SUB DUP9 PUSH2 0x778 JUMP JUMPDEST PUSH2 0x24B DUP7 MLOAD DUP1 SWAP5 DUP2 SWAP4 ADD PUSH2 0x877 JUMP JUMPDEST SUB DUP3 PUSH2 0x778 JUMP JUMPDEST DUP4 MLOAD SWAP6 DUP7 SWAP6 PUSH1 0x60 DUP8 MSTORE PUSH1 0x60 DUP8 ADD SWAP1 PUSH2 0x699 JUMP JUMPDEST SWAP1 DUP6 DUP3 SUB PUSH1 0x20 DUP8 ADD MSTORE PUSH2 0x699 JUMP JUMPDEST SWAP2 DUP4 ADD MSTORE SUB SWAP1 RETURN JUMPDEST DUP4 SWAP2 POP CALLVALUE PUSH2 0x7D JUMPI PUSH1 0x60 CALLDATASIZE PUSH1 0x3 NOT ADD SLT PUSH2 0x7D JUMPI PUSH8 0xFFFFFFFFFFFFFFFF SWAP1 DUP1 CALLDATALOAD DUP3 DUP2 GT PUSH2 0x5FC JUMPI PUSH2 0x2AF SWAP1 CALLDATASIZE SWAP1 DUP4 ADD PUSH2 0x666 JUMP JUMPDEST SWAP3 SWAP1 SWAP5 PUSH1 0x24 SWAP6 DUP7 CALLDATALOAD DUP4 DUP2 GT PUSH2 0x5F8 JUMPI PUSH2 0x2CB SWAP1 CALLDATASIZE SWAP1 DUP7 ADD PUSH2 0x666 JUMP JUMPDEST SWAP1 SWAP5 CALLER DUP9 MSTORE PUSH1 0x20 SWAP5 DUP9 DUP7 MSTORE PUSH1 0x1 SWAP7 PUSH2 0x2E7 DUP9 DUP8 DUP13 KECCAK256 ADD SLOAD PUSH2 0x70C JUMP JUMPDEST PUSH2 0x5B6 JUMPI PUSH1 0x41 DUP5 SUB PUSH2 0x574 JUMPI DUP6 MLOAD SWAP4 PUSH1 0x80 DUP6 ADD DUP6 DUP2 LT DUP5 DUP3 GT OR PUSH2 0x562 JUMPI DUP8 MSTORE PUSH2 0x320 SWAP2 SWAP1 PUSH2 0x317 CALLDATASIZE DUP13 DUP10 PUSH2 0x79A JUMP JUMPDEST DUP7 MSTORE CALLDATASIZE SWAP2 PUSH2 0x79A JUMP JUMPDEST SWAP1 DUP7 DUP5 ADD SWAP2 DUP3 MSTORE DUP6 DUP5 ADD SWAP8 PUSH1 0x44 CALLDATALOAD DUP10 MSTORE PUSH1 0x60 DUP6 ADD SWAP4 DUP12 DUP6 MSTORE CALLER DUP13 MSTORE DUP12 DUP10 MSTORE DUP8 DUP13 KECCAK256 SWAP6 MLOAD DUP13 DUP2 MLOAD SWAP2 DUP6 DUP4 GT PUSH2 0x550 JUMPI SWAP1 DUP3 SWAP2 PUSH2 0x365 DUP4 PUSH2 0x35F DUP13 SLOAD PUSH2 0x70C JUMP JUMPDEST DUP13 PUSH2 0x7E1 JUMP JUMPDEST DUP13 SWAP2 PUSH1 0x1F DUP5 GT PUSH1 0x1 EQ PUSH2 0x4EF JUMPI SWAP3 PUSH2 0x4E4 JUMPI JUMPDEST POP POP PUSH1 0x0 NOT PUSH1 0x3 DUP4 SWAP1 SHL SHR NOT AND SWAP1 DUP4 SHL OR DUP7 SSTORE JUMPDEST DUP2 DUP7 ADD SWAP4 MLOAD SWAP1 DUP2 MLOAD SWAP4 DUP5 GT PUSH2 0x4D2 JUMPI POP SWAP1 DUP3 SWAP2 PUSH2 0x3B8 DUP6 SWAP5 PUSH2 0x3B2 DUP15 SWAP11 SWAP10 SWAP9 SWAP8 SLOAD PUSH2 0x70C JUMP JUMPDEST DUP7 PUSH2 0x7E1 JUMP JUMPDEST DUP10 SWAP1 DUP14 PUSH1 0x1F DUP6 GT PUSH1 0x1 EQ PUSH2 0x447 JUMPI SWAP4 PUSH1 0x3 SWAP7 SWAP6 SWAP4 DUP2 SWAP4 DUP3 SWAP4 PUSH32 0x48CAC28AD4DC618E15F4C2DD5E97751182F166DE97B25618318B2112AA951A2F SWAP16 SWAP8 SWAP5 PUSH2 0x43C JUMPI JUMPDEST POP POP SHL SWAP2 PUSH1 0x0 NOT SWAP1 DUP8 SHL SHR NOT AND OR SWAP1 SSTORE JUMPDEST MLOAD PUSH1 0x2 DUP5 ADD SSTORE MLOAD SWAP2 ADD SSTORE DUP2 DUP4 MLOAD SWAP5 DUP1 DUP7 MSTORE DUP6 ADD MSTORE DUP3 DUP5 ADD CALLDATACOPY DUP5 DUP2 DUP6 DUP5 ADD ADD MSTORE DUP2 CALLER SWAP5 PUSH1 0x1F DUP1 NOT SWAP2 ADD AND DUP2 ADD SUB ADD SWAP1 LOG2 DUP1 RETURN JUMPDEST ADD MLOAD SWAP3 POP CODESIZE DUP1 PUSH2 0x3F9 JUMP JUMPDEST DUP6 DUP2 MSTORE DUP12 DUP2 KECCAK256 SWAP13 SWAP6 SWAP5 SWAP3 SWAP2 SWAP1 PUSH1 0x1F NOT DUP5 AND SWAP1 JUMPDEST DUP2 DUP2 LT PUSH2 0x4BA JUMPI POP SWAP2 PUSH32 0x48CAC28AD4DC618E15F4C2DD5E97751182F166DE97B25618318B2112AA951A2F SWAP14 SWAP2 DUP5 PUSH1 0x3 SWAP10 SWAP9 SWAP8 SWAP7 SWAP6 SWAP5 LT PUSH2 0x4A2 JUMPI JUMPDEST POP POP POP DUP2 SHL ADD SWAP1 SSTORE PUSH2 0x40A JUMP JUMPDEST ADD MLOAD PUSH1 0x0 NOT DUP4 DUP10 SHL PUSH1 0xF8 AND SHR NOT AND SWAP1 SSTORE DUP15 DUP1 DUP1 PUSH2 0x495 JUMP JUMPDEST DUP3 DUP5 ADD MLOAD DUP16 SSTORE SWAP14 DUP6 ADD SWAP14 DUP16 SWAP12 POP SWAP3 DUP14 ADD SWAP3 DUP14 ADD PUSH2 0x45A JUMP JUMPDEST PUSH4 0x4E487B71 PUSH1 0xE0 SHL DUP14 MSTORE PUSH1 0x41 SWAP1 MSTORE DUP13 DUP13 REVERT JUMPDEST ADD MLOAD SWAP1 POP DUP16 DUP1 PUSH2 0x378 JUMP JUMPDEST DUP11 DUP2 MSTORE DUP14 DUP2 KECCAK256 DUP8 SWAP6 POP SWAP3 SWAP2 SWAP1 PUSH1 0x1F NOT DUP6 AND SWAP1 DUP16 JUMPDEST DUP3 DUP3 LT PUSH2 0x539 JUMPI POP POP DUP5 GT PUSH2 0x520 JUMPI JUMPDEST POP POP POP DUP2 SHL ADD DUP7 SSTORE PUSH2 0x38C JUMP JUMPDEST ADD MLOAD PUSH1 0x0 NOT PUSH1 0xF8 DUP5 PUSH1 0x3 SHL AND SHR NOT AND SWAP1 SSTORE DUP16 DUP1 DUP1 PUSH2 0x513 JUMP JUMPDEST DUP4 DUP6 ADD MLOAD DUP7 SSTORE DUP10 SWAP8 SWAP1 SWAP6 ADD SWAP5 SWAP4 DUP5 ADD SWAP4 ADD DUP16 PUSH2 0x503 JUMP JUMPDEST PUSH4 0x4E487B71 PUSH1 0xE0 SHL DUP3 MSTORE PUSH1 0x41 DUP5 MSTORE DUP16 DUP3 REVERT JUMPDEST PUSH4 0x4E487B71 PUSH1 0xE0 SHL DUP13 MSTORE PUSH1 0x41 DUP6 MSTORE DUP13 DUP13 REVERT JUMPDEST DUP6 MLOAD PUSH3 0x461BCD PUSH1 0xE5 SHL DUP2 MSTORE DUP1 DUP5 ADD DUP9 SWAP1 MSTORE PUSH1 0x1B DUP2 DUP14 ADD MSTORE PUSH32 0x5075626C6963206B6579206D7573742062652036352062797465730000000000 PUSH1 0x44 DUP3 ADD MSTORE PUSH1 0x64 SWAP1 REVERT JUMPDEST DUP6 MLOAD PUSH3 0x461BCD PUSH1 0xE5 SHL DUP2 MSTORE DUP1 DUP5 ADD DUP9 SWAP1 MSTORE PUSH1 0x17 DUP2 DUP14 ADD MSTORE PUSH32 0x5573657220616C72656164792072656769737465726564000000000000000000 PUSH1 0x44 DUP3 ADD MSTORE PUSH1 0x64 SWAP1 REVERT JUMPDEST DUP7 DUP1 REVERT JUMPDEST DUP4 DUP1 REVERT JUMPDEST POP POP CALLVALUE PUSH2 0x7D JUMPI DUP2 PUSH1 0x3 NOT CALLDATASIZE ADD SLT PUSH2 0x7D JUMPI PUSH3 0xF4240 PUSH1 0x2 DUP3 PUSH1 0x20 SWAP5 CALLER DUP2 MSTORE DUP1 DUP7 MSTORE PUSH2 0x636 PUSH1 0x41 PUSH2 0xC2 PUSH1 0x1 DUP6 DUP6 KECCAK256 ADD SLOAD PUSH2 0x70C JUMP JUMPDEST CALLER DUP2 MSTORE DUP1 DUP7 MSTORE KECCAK256 ADD SLOAD DUP3 MLOAD DUP5 DUP2 ADD SWAP2 DUP3 MSTORE PUSH1 0x1E TIMESTAMP DIV DUP5 DUP3 ADD MSTORE DUP4 DUP2 MSTORE PUSH2 0x65B DUP2 PUSH2 0x746 JUMP JUMPDEST MLOAD SWAP1 KECCAK256 MOD SWAP1 MLOAD SWAP1 DUP2 MSTORE RETURN JUMPDEST SWAP2 DUP2 PUSH1 0x1F DUP5 ADD SLT ISZERO PUSH2 0x694 JUMPI DUP3 CALLDATALOAD SWAP2 PUSH8 0xFFFFFFFFFFFFFFFF DUP4 GT PUSH2 0x694 JUMPI PUSH1 0x20 DUP4 DUP2 DUP7 ADD SWAP6 ADD ADD GT PUSH2 0x694 JUMPI JUMP JUMPDEST PUSH1 0x0 DUP1 REVERT JUMPDEST SWAP2 SWAP1 DUP3 MLOAD SWAP3 DUP4 DUP3 MSTORE PUSH1 0x0 JUMPDEST DUP5 DUP2 LT PUSH2 0x6C5 JUMPI POP POP DUP3 PUSH1 0x0 PUSH1 0x20 DUP1 SWAP5 SWAP6 DUP5 ADD ADD MSTORE PUSH1 0x1F DUP1 NOT SWAP2 ADD AND ADD ADD SWAP1 JUMP JUMPDEST PUSH1 0x20 DUP2 DUP4 ADD DUP2 ADD MLOAD DUP5 DUP4 ADD DUP3 ADD MSTORE ADD PUSH2 0x6A4 JUMP JUMPDEST PUSH1 0x40 PUSH1 0x3 NOT DUP3 ADD SLT PUSH2 0x694 JUMPI PUSH1 0x4 CALLDATALOAD SWAP1 PUSH8 0xFFFFFFFFFFFFFFFF DUP3 GT PUSH2 0x694 JUMPI PUSH2 0x704 SWAP2 PUSH1 0x4 ADD PUSH2 0x666 JUMP JUMPDEST SWAP1 SWAP2 PUSH1 0x24 CALLDATALOAD SWAP1 JUMP JUMPDEST SWAP1 PUSH1 0x1 DUP3 DUP2 SHR SWAP3 AND DUP1 ISZERO PUSH2 0x73C JUMPI JUMPDEST PUSH1 0x20 DUP4 LT EQ PUSH2 0x726 JUMPI JUMP JUMPDEST PUSH4 0x4E487B71 PUSH1 0xE0 SHL PUSH1 0x0 MSTORE PUSH1 0x22 PUSH1 0x4 MSTORE PUSH1 0x24 PUSH1 0x0 REVERT JUMPDEST SWAP2 PUSH1 0x7F AND SWAP2 PUSH2 0x71B JUMP JUMPDEST PUSH1 0x60 DUP2 ADD SWAP1 DUP2 LT PUSH8 0xFFFFFFFFFFFFFFFF DUP3 GT OR PUSH2 0x762 JUMPI PUSH1 0x40 MSTORE JUMP JUMPDEST PUSH4 0x4E487B71 PUSH1 0xE0 SHL PUSH1 0x0 MSTORE PUSH1 0x41 PUSH1 0x4 MSTORE PUSH1 0x24 PUSH1 0x0 REVERT JUMPDEST SWAP1 PUSH1 0x1F DUP1 NOT SWAP2 ADD AND DUP2 ADD SWAP1 DUP2 LT PUSH8 0xFFFFFFFFFFFFFFFF DUP3 GT OR PUSH2 0x762 JUMPI PUSH1 0x40 MSTORE JUMP JUMPDEST SWAP3 SWAP2 SWAP3 PUSH8 0xFFFFFFFFFFFFFFFF DUP3 GT PUSH2 0x762 JUMPI PUSH1 0x40 MLOAD SWAP2 PUSH2 0x7C4 PUSH1 0x1F DUP3 ADD PUSH1 0x1F NOT AND PUSH1 0x20 ADD DUP5 PUSH2 0x778 JUMP JUMPDEST DUP3 SWAP5 DUP2 DUP5 MSTORE DUP2 DUP4 ADD GT PUSH2 0x694 JUMPI DUP3 DUP2 PUSH1 0x20 SWAP4 DUP5 PUSH1 0x0 SWAP7 ADD CALLDATACOPY ADD ADD MSTORE JUMP JUMPDEST SWAP1 PUSH1 0x1F DUP2 GT PUSH2 0x7EF JUMPI POP POP POP JUMP JUMPDEST PUSH1 0x0 SWAP2 DUP3 MSTORE PUSH1 0x20 DUP3 KECCAK256 SWAP1 PUSH1 0x20 PUSH1 0x1F DUP6 ADD PUSH1 0x5 SHR DUP4 ADD SWAP5 LT PUSH2 0x82B JUMPI JUMPDEST PUSH1 0x1F ADD PUSH1 0x5 SHR ADD SWAP2 JUMPDEST DUP3 DUP2 LT PUSH2 0x820 JUMPI POP POP POP JUMP JUMPDEST DUP2 DUP2 SSTORE PUSH1 0x1 ADD PUSH2 0x814 JUMP JUMPDEST SWAP1 SWAP3 POP DUP3 SWAP1 PUSH2 0x80B JUMP JUMPDEST ISZERO PUSH2 0x83C JUMPI JUMP JUMPDEST PUSH1 0x40 MLOAD PUSH3 0x461BCD PUSH1 0xE5 SHL DUP2 MSTORE PUSH1 0x20 PUSH1 0x4 DUP3 ADD MSTORE PUSH1 0x13 PUSH1 0x24 DUP3 ADD MSTORE PUSH19 0x155CD95C881B9BDD081C9959DA5CDD195C9959 PUSH1 0x6A SHL PUSH1 0x44 DUP3 ADD MSTORE PUSH1 0x64 SWAP1 REVERT JUMPDEST SWAP1 PUSH1 0x0 SWAP3 SWAP2 DUP1 SLOAD SWAP2 PUSH2 0x888 DUP4 PUSH2 0x70C JUMP JUMPDEST SWAP2 DUP3 DUP3 MSTORE PUSH1 0x1 SWAP4 DUP5 DUP2 AND SWAP1 DUP2 PUSH1 0x0 EQ PUSH2 0x8EA JUMPI POP PUSH1 0x1 EQ PUSH2 0x8AA JUMPI JUMPDEST POP POP POP POP JUMP JUMPDEST SWAP1 SWAP2 SWAP4 SWAP5 POP PUSH1 0x0 MSTORE PUSH1 0x20 SWAP3 DUP4 PUSH1 0x0 KECCAK256 SWAP3 DUP5 PUSH1 0x0 SWAP5 JUMPDEST DUP4 DUP7 LT PUSH2 0x8D6 JUMPI POP POP POP POP ADD ADD SWAP1 CODESIZE DUP1 DUP1 DUP1 PUSH2 0x8A4 JUMP JUMPDEST DUP1 SLOAD DUP6 DUP8 ADD DUP4 ADD MSTORE SWAP5 ADD SWAP4 DUP6 SWAP1 DUP3 ADD PUSH2 0x8BF JUMP JUMPDEST SWAP3 SWAP5 POP POP POP PUSH1 0x20 SWAP4 SWAP5 POP PUSH1 0xFF NOT AND DUP4 DUP4 ADD MSTORE ISZERO ISZERO PUSH1 0x5 SHL ADD ADD SWAP1 CODESIZE DUP1 DUP1 DUP1 PUSH2 0x8A4 JUMP JUMPDEST CALLER PUSH1 0x0 MSTORE PUSH1 0x0 PUSH1 0x20 MSTORE PUSH1 0x40 PUSH1 0x0 KECCAK256 SWAP2 PUSH1 0x1 DUP4 ADD PUSH1 0x41 PUSH2 0x92C DUP3 SLOAD PUSH2 0x70C JUMP JUMPDEST SUB PUSH2 0x989 JUMPI PUSH2 0x94C SWAP3 PUSH2 0xD3 SWAP3 PUSH2 0xDA PUSH2 0xE1 SWAP4 PUSH1 0x40 MLOAD SWAP6 DUP7 DUP1 SWAP3 PUSH2 0x877 JUMP JUMPDEST ISZERO PUSH2 0x982 JUMPI PUSH1 0x2 PUSH3 0xF4240 SWAP2 ADD SLOAD PUSH1 0x40 MLOAD PUSH1 0x20 DUP2 ADD SWAP2 DUP3 MSTORE PUSH1 0x1E TIMESTAMP DIV PUSH1 0x40 DUP3 ADD MSTORE PUSH1 0x40 DUP2 MSTORE PUSH2 0x97A DUP2 PUSH2 0x746 JUMP JUMPDEST MLOAD SWAP1 KECCAK256 MOD EQ SWAP1 JUMP JUMPDEST POP POP PUSH1 0x0 SWAP1 JUMP JUMPDEST POP POP POP POP POP PUSH1 0x0 SWAP1 JUMP JUMPDEST SWAP1 DUP2 MLOAD DUP2 LT ISZERO PUSH2 0x9A4 JUMPI ADD PUSH1 0x20 ADD SWAP1 JUMP JUMPDEST PUSH4 0x4E487B71 PUSH1 0xE0 SHL PUSH1 0x0 MSTORE PUSH1 0x32 PUSH1 0x4 MSTORE PUSH1 0x24 PUSH1 0x0 REVERT JUMPDEST SWAP2 SWAP1 DUP3 MLOAD DUP2 MLOAD SUB PUSH2 0xA30 JUMPI PUSH1 0x0 JUMPDEST DUP4 MLOAD DUP2 LT ISZERO PUSH2 0xA28 JUMPI PUSH1 0x1 PUSH1 0x1 PUSH1 0xF8 SHL SUB NOT DUP1 PUSH2 0x9E5 DUP4 DUP8 PUSH2 0x993 JUMP JUMPDEST MLOAD AND SWAP1 PUSH2 0x9F2 DUP4 DUP6 PUSH2 0x993 JUMP JUMPDEST MLOAD AND SUB PUSH2 0xA20 JUMPI PUSH1 0x0 NOT DUP2 EQ PUSH2 0xA0A JUMPI PUSH1 0x1 ADD PUSH2 0x9C8 JUMP JUMPDEST PUSH4 0x4E487B71 PUSH1 0xE0 SHL PUSH1 0x0 MSTORE PUSH1 0x11 PUSH1 0x4 MSTORE PUSH1 0x24 PUSH1 0x0 REVERT JUMPDEST POP PUSH1 0x0 SWAP3 POP POP JUMP JUMPDEST POP PUSH1 0x1 SWAP3 POP POP JUMP JUMPDEST POP PUSH1 0x0 SWAP2 POP JUMP INVALID LOG2 PUSH5 0x6970667358 0x22 SLT KECCAK256 RETURN SWAP9 DUP14 SLOAD SELFDESTRUCT SLT SWAP4 0xA8 0xE 0xBF 0xC1 INVALID PUSH7 0x3360E6FDDC5F66 0xDA SHR 0xC PUSH3 0xBC47D4 SIGNEXTEND 0x4D PUSH8 0x1F0E64736F6C6343 STOP ADDMOD EQ STOP CALLER "},"methodIdentifiers":{"authenticateUser(bytes,uint256)":"d0207c55","generateOTP()":"08e465d0","getUserDetails(address)":"cc3d967b","isOTPValid(bytes,uint256)":"d8a2c37a","registerUser(string,bytes,bytes32)":"7493a276"}}}}}